S0190000536D6172745F486F7573655F536C6176652E7372656347
S11300000C943E000C945B000C945B000C945B001D
S11300100C945B000C945B000C945B000C947305D3
S11300200C945B000C945B000C945B000C945B00E0
S11300300C945B000C945B000C945B000C945B00D0
S11300400C945B000C945B000C945B000C945B00C0
S11300500C945B00A804B604A104CB04D904C40422
S1130060EE04FC04E70411051F050A0534058E049B
S113007042052D0555055E055005670511241FBE73
S1130080CFE5D8E0DEBFCDBF10E0A0E6B0E0ECE005
S1130090F2E102C005900D92A436B107D9F710E041
S11300A0A4E6B0E001C01D92AC36B107E1F70E94AE
S11300B01F040C9404090C9400003E9A3F9A379A4A
S11300C0329A319A0895369A349BFECF349A84B189
S11300D090E045B1342F20E0822B932B089583E4E4
S11300E060E041E00E94980083E461E041E00E9406
S11300F098000E94430608950E946706089583E4C9
S113010060E041E00E94290183E461E040E00E9454
S11301102901089583E460E040E00E94290183E41A
S113012061E040E00E94290180E00E947C00089583
S1130130843409F471C0853448F4823499F18334E9
S113014008F04DC0813409F083C00FC0823651F1EC
S1130150833620F4813609F07BC007C0833609F466
S11301603EC0843609F074C057C0413069F42AB3E4
S113017081E090E0AC0102C0440F551F6A95E2F79C
S1130180BA01622B6ABB08952AB381E090E0AC0106
S113019002C0440F551F6A95E2F7BA0160956223C5
S11301A06ABB0895413069F427B381E090E0AC0163
S11301B002C0440F551F6A95E2F7BA01622B67BB70
S11301C0089527B381E090E0AC0102C0440F551FAD
S11301D06A95E2F7BA016095622367BB08954130DE
S11301E069F424B381E090E0AC0102C0440F551FD0
S11301F06A95E2F7BA01622B64BB089524B381E0E7
S113020090E0AC0102C0440F551F6A95E2F7BA01B1
S11302106095622364BB0895413069F421B381E0A1
S113022090E0AC0102C0440F551F6A95E2F7BA0191
S1130230622B61BB089521B381E090E0AC0102C060
S1130240440F551F6A95E2F7BA016095622361BBBA
S11302500895843409F471C0853448F4823499F1E2
S1130260833408F04DC0813409F083C00FC0823656
S113027051F1833620F4813609F07BC007C0833600
S113028009F43EC0843609F074C057C0413069F4A3
S11302902BB381E090E0AC0102C0440F551F6A9576
S11302A0E2F7BA01622B6BBB08952BB381E090E0B7
S11302B0AC0102C0440F551F6A95E2F7BA0160957C
S11302C062236BBB0895413069F428B381E090E068
S11302D0AC0102C0440F551F6A95E2F7BA01622BC4
S11302E068BB089528B381E090E0AC0102C0440FDC
S11302F0551F6A95E2F7BA016095622368BB0895B9
S1130300413069F425B381E090E0AC0102C0440FB0
S1130310551F6A95E2F7BA01622B65BB089525B3B0
S113032081E090E0AC0102C0440F551F6A95E2F7EA
S1130330BA016095622365BB0895413069F422B324
S113034081E090E0AC0102C0440F551F6A95E2F7CA
S1130350BA01622B62BB089522B381E090E0AC0144
S113036002C0440F551F6A95E2F7BA0160956223F3
S113037062BB0895843409F44EC0853440F4823459
S113038031F18334B0F5813409F057C00EC08236A0
S1130390F1F0833620F4813609F04FC006C083366D
S11303A041F1843609F049C036C029B381E090E0B8
S11303B0062E02C0880F991F0A94E2F730E08223C8
S11303C0932302C0959587956A95E2F7089526B31D
S11303D081E090E0062E02C0880F991F0A94E2F78C
S11303E030E08223932302C0959587956A95E2F7BE
S11303F0089523B381E090E0062E02C0880F991F70
S11304000A94E2F730E08223932302C095958795FE
S11304106A95E2F7089520B381E090E0062E02C0C9
S1130420880F991F0A94E2F730E08223932302C0D5
S1130430959587956A95E2F7089580E00895843448
S113044009F43DC0853440F48234F9F0833450F526
S1130450813409F040C00CC08236B9F0833618F4F8
S11304608136C9F505C08336E9F08436A1F527C085
S11304702BB381E090E0AC0102C0440F551F6A9594
S1130480E2F7BA0162276BBB089528B381E090E0DC
S1130490AC0102C0440F551F6A95E2F7BA01622706
S11304A068BB089525B381E090E0AC0102C0440F1D
S11304B0551F6A95E2F7BA01622765BB089522B316
S11304C081E090E0AC0102C0440F551F6A95E2F749
S11304D0BA01622762BB08958434D9F0853438F4B4
S11304E0823499F0833498F48134A1F40CC08236B8
S11304F061F0833618F4813669F405C0833639F027
S1130500843641F406C06ABB089567BB089564BB92
S1130510089561BB08958434D9F0853438F4823465
S113052099F0833498F48134A1F40CC0823661F0DC
S1130530833618F4813669F405C0833639F084367D
S113054041F406C06BBB089568BB089565BB08956C
S113055062BB08958434D9F0853438F4823499F038
S1130560833498F48134A9F40CC0823661F0833664
S113057018F4813671F405C0833639F0843649F4B1
S113058006C089B3089586B3089583B3089580B3EC
S1130590089580E00895843409F1853438F4823470
S11305A0A9F08334B8F48134E1F40CC0823671F0DC
S11305B0833618F48136A9F405C0833659F084369D
S11305C081F40CC08BB380958BBB089588B3809560
S11305D088BB089585B3809585BB089582B38095C3
S11305E082BB0895843409F471C0853448F482349C
S11305F099F1833408F04DC0813409F083C00FC0F1
S1130600823651F1833620F4813609F07BC007C06D
S1130610833609F43EC0843609F074C057C04130B3
S113062069F42BB381E090E0AC0102C0440F551F84
S11306306A95E2F7BA01622B6BBB08952BB381E094
S113064090E0AC0102C0440F551F6A95E2F7BA016D
S1130650609562236BBB0895413069F428B381E04F
S113066090E0AC0102C0440F551F6A95E2F7BA014D
S1130670622B68BB089528B381E090E0AC0102C00E
S1130680440F551F6A95E2F7BA016095622368BB6F
S11306900895413069F425B381E090E0AC0102C0D3
S11306A0440F551F6A95E2F7BA01622B65BB0895A2
S11306B025B381E090E0AC0102C0440F551F6A9558
S11306C0E2F7BA016095622365BB0895413069F48D
S11306D022B381E090E0AC0102C0440F551F6A953B
S11306E0E2F7BA01622B62BB089522B381E090E085
S11306F0AC0102C0440F551F6A95E2F7BA01609538
S1130700622362BB0895CF92DF92EF92FF920F9320
S11307101F93CF93DF93082F162F653028F5862F6C
S11307208C5F681708F5C0E0D0E0EE24FF24E39462
S1130730C42EDD246C2F610FC7010C2E02C0880F5C
S1130740991F0A94E2F78C219D219C010C2E02C072
S1130750359527950A94E2F7A901802F0E94290173
S11307602196C430D10531F7DF91CF911F910F91BC
S1130770FF90EF90DF90CF9008958EBB9FBB6DBB31
S1130780F894E29AE19A7894E199FECF08958EBBA9
S11307909FBBE09A8DB30895CF93DF9300D0CDB77C
S11307A0DEB789836A8389816A8141E00E94980067
S11307B00F900F90DF91CF910895CF93DF9300D0E6
S11307C0CDB7DEB789836A8389816A8141E00E945B
S11307D029010F900F90DF91CF910895CF93DF936C
S11307E000D0CDB7DEB789836A8389816A8140E00E
S11307F00E9429010F900F90DF91CF910895CF931C
S1130800DF9300D0CDB7DEB789836A8389816A819B
S11308100E941F020F900F90DF91CF910895CF9304
S1130820DF9300D0CDB7DEB789836A8389816A817B
S11308300E94BA010F900F90DF91CF91089584E642
S113084060E00E94CC0384E661E00E94CC0384E66D
S113085062E00E94CC0384E663E00E94CC0384E659
S113086064E00E94CC030E945D000E946F000E941D
S1130870E30580E290E00E94C7038093600081E278
S113088090E00E94C7038093640082E290E00E949B
S1130890C70380936A0083E290E00E94C7038093B9
S11308A0680084E290E00E94C70380936B0085E2B5
S11308B090E00E94C7038093690086E290E00E9462
S11308C0C7038093670080916A00813021F484E437
S11308D060E00E94DD0380916800813021F484E4AB
S11308E061E00E94DD0380916B00813021F484E497
S11308F062E00E94DD0380916900813021F484E488
S113090063E00E94DD0380916700813021F484E478
S113091064E00E94DD030E947906C1E08FEF0E942B
S113092006068093620090E0019784319105B0F748
S1130930865D9F4FFC01EE0FFF1F0590F491E02DA3
S1130940099484E660E00E940F040E940606E6CF44
S113095084E460E00E94DD0384E660E00E940F040A
S1130960682F82E290E00E94BD03D8CF84E660E065
S11309700E94EE0384E660E00E940F04682F82E286
S113098090E00E94BD03CACF84E66C2F0E940F043E
S11309900E940606C3CF84E46C2F0E94DD0384E624
S11309A06C2F0E940F04682F83E290E00E94BD0325
S11309B0B5CF84E66C2F0E94EE0384E66C2F0E9470
S11309C00F04682F83E290E00E94BD03A7CF84E662
S11309D062E00E940F040E940606A0CF84E462E055
S11309E00E94DD0384E662E00E940F04682F84E223
S11309F090E00E94BD0392CF84E662E00E94EE0381
S1130A0084E662E00E940F04682F84E290E00E9472
S1130A10BD0384CF84E663E00E940F040E940606AF
S1130A207DCF84E463E00E94DD0384E663E00E94FA
S1130A300F04682F85E290E00E94BD036FCF84E627
S1130A4063E00E94EE0384E663E00E940F04682FD3
S1130A5085E290E00E94BD0361CF84E664E00E94D9
S1130A600F040E9406065ACF84E464E00E94DD036A
S1130A7084E664E00E940F04682F86E290E00E94FE
S1130A80BD034CCF84E664E00E94EE0384E664E098
S1130A900E940F04682F86E290E00E94BD033ECFBF
S1130AA0809164000E94060639CFC093640060916F
S1130AB0640081E290E00E94BD0330CF1092640094
S1130AC06091640081E290E00E94BD0327CF8FEF24
S1130AD00E940606809360006091600080E290E0CE
S1130AE00E94BD031BCF1F920F920FB60F921124C9
S1130AF02F933F934F935F936F937F938F939F9322
S1130B00AF93BF93EF93FF930E946300BC0180E017
S1130B1090E00E94960720E030E040E250E40E941A
S1130B204C080E946A07DC01CB0190936600809315
S1130B30650080916500909166006AE070E00E9413
S1130B40CE086093610090916100809160008917E4
S1130B5050F480916400813031F40E947F0084E677
S1130B600E947C0002C00E948A00FF91EF91BF9115
S1130B70AF919F918F917F916F915F914F913F9131
S1130B802F910F900FBE0F901F90189582E464E090
S1130B9041E00E94980082E465E041E00E949800F0
S1130BA082E466E040E00E94980082E467E041E06D
S1130BB00E9498006C9A689A6E9A82E464E041E01C
S1130BC00E942901089582E464E040E00E949800B4
S1130BD082E465E040E00E94980082E466E041E03F
S1130BE00E94980082E467E040E00E9498006E9AB8
S1130BF00895CF93C82F82E464E040E00E94290165
S1130C00CFB9779BFECF8FB1CF9108958FB9779BE2
S1130C10FECF8FB10895CF93DF93EC0188818823B1
S1130C2079F021960E94F9058FEF92E5A7E08150B3
S1130C309040A040E1F700C000008991882391F71B
S1130C40DF91CF91089583B7846083BF83B78160B8
S1130C5083BF83B7886083BF8EE48CBF789489B7E1
S1130C60826089BF0895BB9A83B7846083BF83B7CA
S1130C70816083BF85E48CBF83B7886083BF83B7FB
S1130C80806183BF0895BB9A83B7846083BF83B7B1
S1130C90816083BF83B7806483BF83B7886083BF69
S1130CA083B7806283BF0895BB9A83B7846083BF90
S1130CB083B7816083BF80E48CBF83B7806483BFC4
S1130CC083B7806283BF83B7806183BF0895682F31
S1130CD070E080E090E02FEF30E040E050E00E94D0
S1130CE0AF0824E630E040E050E00E94E2082CBF68
S1130CF008958EB584608EBD8EB581608EBD8EB52F
S1130D0088608EBD8CEB92E09BBD8ABD89B7806103
S1130D1089BF78940895CF92DF92EF92FF920F9358
S1130D201F93CF93DF9320EC3BE046EB5BE30E9401
S1130D304C0820E030E040E85FE30E940207D82F2F
S1130D40C92F062F172FD82EC92E862F912FAD2FDE
S1130D50BC2FBC01CD0120E030E040E85FE30E94FD
S1130D6066071816ACF4802F912FAD2FBC2FBC0151
S1130D70CD0120E030E040E050E40E9448088823A0
S1130D808CF000E010E0DD24CC246894C6F80AC09E
S1130D9000E010E00F2EF0E8DF2EF02D0F2EFFE321
S1130DA0CF2EF02D8D9A8FB582608FBD8EB5886061
S1130DB08EBD8EB580618EBD8EB581608EBD8FB5C2
S1130DC080688FBD8FE19EE497BD86BD802F912FF3
S1130DD0AD2DBC2DBC01CD0120E030E04AE754E448
S1130DE00E944C080E946A07DC01CB019BBD8ABDAE
S1130DF0DF91CF911F910F91FF90EF90DF90CF90F3
S1130E0008955058BB27AA270ED008C1F9D030F056
S1130E10FED020F031F49F3F11F41EF4EEC00EF426
S1130E20E095E7FBE4C0E92F0AD180F3BA17620723
S1130E3073078407950718F071F49EF522C10EF428
S1130E40E0950B2EBA2FA02D0B01B90190010C01D6
S1130E50CA01A0011124FF27591B99F0593F50F4EE
S1130E60503E68F11A16F040A22F232F342F442746
S1130E70585FF3CF469537952795A795F04053953E
S1130E80C9F77EF41F16BA0B620B730B840BBAF00E
S1130E909150A1F0FF0FBB1F661F771F881FC2F779
S1130EA00EC0BA0F621F731F841F48F4879577958D
S1130EB06795B795F7959E3F08F0B3CF9395880F44
S1130EC008F09927EE0F9795879508956CD008F44C
S1130ED081E00895BCD088F09F5790F0B92F9927EE
S1130EE0B751A0F0D1F0660F771F881F991F1AF031
S1130EF0BA95C9F712C0B13081F0C3D0B1E00895FA
S1130F00C0C0672F782F8827B85F39F0B93FCCF37A
S1130F10869577956795B395D9F73EF49095809526
S1130F20709561957F4F8F4F9F4F0895E89409C046
S1130F3097FB3EF490958095709561957F4F8F4F08
S1130F409F4F9923A9F0F92F96E9BB279395F6951E
S1130F50879577956795B795F111F8CFFAF4BB0F9C
S1130F6011F460FF1BC06F5F7F4F8F4F9F4F16C000
S1130F70882311F096E911C0772321F09EE8872F8A
S1130F80762F05C0662371F096E8862F70E060E046
S1130F902AF09A95660F771F881FDAF7880F9695BF
S1130FA0879597F90895990F0008550FAA0BE0E863
S1130FB0FEEF16161706E807F907C0F01216130617
S1130FC0E407F50798F0621B730B840B950B39F457
S1130FD00A2661F0232B242B252B21F408950A26BD
S1130FE009F4A140A6958FEF811D811D089597F9FD
S1130FF09F6780E870E060E008959FEF80EC0895BB
S113100000240A94161617061806090608950024E3
S11310100A9412161306140605060895092E03945D
S1131020000C11F4882352F0BB0F40F4BF2B11F4D1
S113103060FF04C06F5F7F4F8F4F9F4F089557FD30
S11310409058440F551F59F05F3F71F04795880F32
S113105097FB991F61F09F3F79F0879508951216C9
S113106013061406551FF2CF4695F1DF08C0161675
S113107017061806991FF1CF869571056105089426
S11310800895E894BB2766277727CB0197F908953D
S11310908ADF08F48FEF08950BD0C0CFB1DF28F0BA
S11310A0B6DF18F0952309F0A2CFA7CF1124EACF19
S11310B0C6DFA0F3959FD1F3950F50E0551F629FB3
S11310C0F001729FBB27F00DB11D639FAA27F00D9D
S11310D0B11DAA1F649F6627B00DA11D661F829FC4
S11310E02227B00DA11D621F739FB00DA11D621FA9
S11310F0839FA00D611D221F749F3327A00D611DC6
S1131100231F849F600D211D822F762F6A2F1124A7
S11311109F5750408AF0E1F088234AF0EE0FFF1FFA
S1131120BB1F661F771F881F91505040A9F79E3F31
S1131130510570F05CCFA6CF5F3FECF3983EDCF333
S1131140869577956795B795F795E7959F5FC1F76E
S1131150FE2B880F911D9695879597F90895629FA8
S1131160D001739FF001829FE00DF11D649FE00D9B
S1131170F11D929FF00D839FF00D749FF00D659FFC
S1131180F00D9927729FB00DE11DF91F639FB00DFB
S1131190E11DF91FBD01CF0111240895AA1BBB1B3A
S11311A051E107C0AA1FBB1FA617B70710F0A61B63
S11311B0B70B881F991F5A95A9F780959095BC0184
S11311C0CD010895A1E21A2EAA1BBB1BFD010DC07F
S11311D0AA1FBB1FEE1FFF1FA217B307E407F507E3
S11311E020F0A21BB30BE40BF50B661F771F881FBF
S11311F0991F1A9469F760957095809590959B0155
S10F1200AC01BD01CF010895F894FFCFAC
S107120CFFFFFF00DD
S9030000FC
