S01A0000536D6172745F486F7573655F4D61737465722E73726563D5
S11300000C942A000C9447000C9447000C9447006D
S11300100C9447000C9447000C9447000C94470040
S11300200C9447000C9447000C9447000C94470030
S11300300C9447000C9447000C9447000C94470020
S11300400C9447000C9447000C9447000C94470010
S11300500C94470011241FBECFE5D8E0DEBFCDBF0E
S113006012E0A0E6B0E0E0E0F8E102C005900D92F5
S1130070AE30B107D9F712E0AEE0B2E001C01D9294
S1130080A631B107E1F70E94A4080C94FE0B0C946E
S11300900000843409F471C0853448F4823499F141
S11300A0833408F04DC0813409F083C00FC0823618
S11300B051F1833620F4813609F07BC007C08336C2
S11300C009F43EC0843609F074C057C0413069F465
S11300D02AB381E090E0AC0102C0440F551F6A9539
S11300E0E2F7BA01622B6ABB08952AB381E090E07B
S11300F0AC0102C0440F551F6A95E2F7BA0160953E
S113010062236ABB0895413069F427B381E090E02B
S1130110AC0102C0440F551F6A95E2F7BA01622B85
S113012067BB089527B381E090E0AC0102C0440F9F
S1130130551F6A95E2F7BA016095622367BB08957B
S1130140413069F424B381E090E0AC0102C0440F73
S1130150551F6A95E2F7BA01622B64BB089524B374
S113016081E090E0AC0102C0440F551F6A95E2F7AC
S1130170BA016095622364BB0895413069F421B3E8
S113018081E090E0AC0102C0440F551F6A95E2F78C
S1130190BA01622B61BB089521B381E090E0AC0108
S11301A002C0440F551F6A95E2F7BA0160956223B5
S11301B061BB0895843409F471C0853448F48234F1
S11301C099F1833408F04DC0813409F083C00FC025
S11301D0823651F1833620F4813609F07BC007C0A2
S11301E0833609F43EC0843609F074C057C04130E8
S11301F069F42BB381E090E0AC0102C0440F551FB9
S11302006A95E2F7BA01622B6BBB08952BB381E0C8
S113021090E0AC0102C0440F551F6A95E2F7BA01A1
S1130220609562236BBB0895413069F428B381E083
S113023090E0AC0102C0440F551F6A95E2F7BA0181
S1130240622B68BB089528B381E090E0AC0102C042
S1130250440F551F6A95E2F7BA016095622368BBA3
S11302600895413069F425B381E090E0AC0102C007
S1130270440F551F6A95E2F7BA01622B65BB0895D6
S113028025B381E090E0AC0102C0440F551F6A958C
S1130290E2F7BA016095622365BB0895413069F4C1
S11302A022B381E090E0AC0102C0440F551F6A956F
S11302B0E2F7BA01622B62BB089522B381E090E0B9
S11302C0AC0102C0440F551F6A95E2F7BA0160956C
S11302D0622362BB0895843409F44EC0853440F42B
S11302E0823431F18334B0F5813409F057C00EC043
S11302F08236F1F0833620F4813609F04FC006C00F
S1130300833641F1843609F049C036C029B381E00F
S113031090E0062E02C0880F991F0A94E2F730E09D
S11303208223932302C0959587956A95E2F70895F1
S113033026B381E090E0062E02C0880F991F0A942C
S1130340E2F730E08223932302C0959587956A955E
S1130350E2F7089523B381E090E0062E02C0880FEF
S1130360991F0A94E2F730E08223932302C0959503
S113037087956A95E2F7089520B381E090E0062E10
S113038002C0880F991F0A94E2F730E08223932376
S113039002C0959587956A95E2F7089580E00895DF
S11303A0843409F43DC0853440F48234F9F0833454
S11303B050F5813409F040C00CC08236B9F0833660
S11303C018F48136C9F505C08336E9F08436A1F501
S11303D027C02BB381E090E0AC0102C0440F551F4D
S11303E06A95E2F7BA0162276BBB089528B381E0EE
S11303F090E0AC0102C0440F551F6A95E2F7BA01C0
S1130400622768BB089525B381E090E0AC0102C087
S1130410440F551F6A95E2F7BA01622765BB089538
S113042022B381E090E0AC0102C0440F551F6A95ED
S1130430E2F7BA01622762BB08958434D9F08534A7
S113044038F4823499F0833498F48134A1F40CC0E4
S1130450823661F0833618F4813669F405C0833638
S113046039F0843641F406C06ABB089567BB089529
S113047064BB089561BB08958434D9F0853438F49D
S1130480823499F0833498F48134A1F40CC0823618
S113049061F0833618F4813669F405C0833639F087
S11304A0843641F406C06BBB089568BB089565BBF0
S11304B0089562BB08958434D9F0853438F48234C5
S11304C099F0833498F48134A9F40CC0823661F035
S11304D0833618F4813671F405C0833639F08436D6
S11304E049F406C089B3089586B3089583B3089583
S11304F080B3089580E00895843409F1853438F494
S11305008234A9F08334B8F48134E1F40CC0823627
S113051071F0833618F48136A9F405C0833659F096
S1130520843681F40CC08BB380958BBB089588B35B
S1130530809588BB089585B3809585BB089582B363
S1130540809582BB0895843409F471C0853448F4DD
S1130550823499F1833408F04DC0813409F083C0AA
S11305600FC0823651F1833620F4813609F07BC006
S113057007C0833609F43EC0843609F074C057C0FE
S1130580413069F42BB381E090E0AC0102C0440F28
S1130590551F6A95E2F7BA01622B6BBB08952BB322
S11305A081E090E0AC0102C0440F551F6A95E2F768
S11305B0BA01609562236BBB0895413069F428B396
S11305C081E090E0AC0102C0440F551F6A95E2F748
S11305D0BA01622B68BB089528B381E090E0AC01B6
S11305E002C0440F551F6A95E2F7BA016095622371
S11305F068BB0895413069F425B381E090E0AC0113
S113060002C0440F551F6A95E2F7BA01622B65BB1D
S1130610089525B381E090E0AC0102C0440F551F5A
S11306206A95E2F7BA016095622365BB089541308B
S113063069F422B381E090E0AC0102C0440F551F7D
S11306406A95E2F7BA01622B62BB089522B381E096
S113065090E0AC0102C0440F551F6A95E2F7BA015D
S11306606095622362BB0895CF92DF92EF92FF926E
S11306700F931F93CF93DF93082F162F653028F520
S1130680862F8C5F681708F5C0E0D0E0EE24FF24C5
S1130690E394C42EDD246C2F610FC7010C2E02C01D
S11306A0880F991F0A94E2F78C219D219C010C2E3E
S11306B002C0359527950A94E2F7A901802F0E947C
S11306C0DA002196C430D10531F7DF91CF911F9123
S11306D00F91FF90EF90DF90CF9008958EBB9FBB5A
S11306E06DBBF894E29AE19A7894E199FECF08956B
S11306F08EBB9FBBE09A8DB3089584E660E041E031
S11307000E94490084E661E041E00E94490084E6D9
S113071062E041E00E94490084E663E041E00E9417
S1130720490084E664E040E00E94490084E665E014
S113073040E00E94490084E666E040E00E944900EF
S113074084E667E040E00E94490084E664E041E01A
S11307500E94A30284E665E041E00E94A30284E6CD
S113076066E041E00E94A30284E667E041E00E9463
S1130770A30208950F931F93CF93DF93CDB7DEB7F2
S113078060970FB6F894DEBF0FBECDBFDE011196A1
S1130790E0E6F0E080E101900D928150E1F700E0A5
S11307A084E660E04FE00E94340384E6602F40E07A
S11307B00E94DA0010E0612F6C5F84E60E946B01F6
S11307C0882361F4E02FF0E0EE0FFF1FEE0FFF1F10
S11307D0E10FF11DEC0FFD1F818104C01F5F143078
S11307E051F70BC060960FB6F894DEBF0FBECDBFB5
S11307F0DF91CF911F910F9108950F5F043081F61F
S11308008FEFF0CF82E461E041E00E94DA0087E8F4
S113081093E10197F1F700C0000082E461E040E059
S11308200E94DA0087E893E10197F1F700C0000025
S11308300895CF93C82F82E462E040E00E94DA007A
S113084082E460E041E00E94DA004C2F42954F7050
S113085081E464E00E9434030E94020481E464E0C1
S11308604C2F0E9434030E940204CF910895CF9329
S1130870C82F82E462E040E00E94DA0082E460E093
S113088040E00E94DA004C2F42954F7081E464E00E
S11308900E9434030E94020481E464E04C2F0E940D
S11308A034030E9402048FE99FE00197F1F700C02E
S11308B00000CF910895CF93DF93EC0188818823C2
S11308C031F021960E94190489918823D9F7DF9188
S11308D0CF910895982F9150923080F4662389F037
S11308E0613190F4813029F4862F90E081589F4F34
S11308F00DC0862F90E081549F4F08C080E890E09F
S113090005C080E890E002C080E890E00E943704CF
S1130910089581E00E9437048FE19EE40197F1F786
S113092000C00000089582E00E9437048FE19EE435
S11309300197F1F700C000000895CF938FE79AE183
S1130940A6E081509040A040E1F700C00000C4E060
S113095081E46C2F41E00E944900CF5FC830C1F7A9
S113096082E462E041E00E94490082E460E041E008
S11309700E94490082E461E041E00E9449000E9433
S1130980930488E20E9437048EE00E9437040E9498
S1130990890486E00E943704CF910895CF93DF93B2
S11309A000D0CDB7DEB789836A8389816A8141E04B
S11309B00E9449000F900F90DF91CF910895CF933B
S11309C0DF9300D0CDB7DEB789836A8389816A81DA
S11309D041E00E94DA000F900F90DF91CF910895CB
S11309E0CF93DF9300D0CDB7DEB789836A83898143
S11309F06A8140E00E94DA000F900F90DF91CF915E
S1130A000895CF93DF9300D0CDB7DEB789836A838F
S1130A1089816A810E94D0010F900F90DF91CF915C
S1130A200895CF93DF9300D0CDB7DEB789836A836F
S1130A3089816A810E946B010F900F90DF91CF91A1
S1130A40089580E790E00E945B0480910902815040
S1130A508093090282E061E00E946A048BE790E0DF
S1130A600E945B0480910902805D0E9419048FEF4B
S1130A7099E6A8E181509040A040E1F700C0000051
S1130A800E94890480910902882309F051C083E6F9
S1130A9062E00E94DF0480E390E061E00E946E0364
S1130AA082E890E00E945B0482E061E00E946A04B4
S1130AB083E30E94190485E30E94190482E990E00B
S1130AC00E945B0483E280930F0280910F028823CB
S1130AD0C1F060910F0281E390E00E946E038FEFFA
S1130AE099E6A8E181509040A040E1F700C00000E1
S1130AF080910F02815080930F0280910F0288230E
S1130B0041F783E08093090280E390E06FEF0E9455
S1130B106E038FEF99E6A8E181509040A040E1F781
S1130B2000C000000E94890483E662E00E94F00491
S1130B300895AF92BF92CF92DF92EF92FF920F93FC
S1130B401F93CF93DF930E9489048BE990E00E9466
S1130B505B0482E061E00E946A048AEA90E00E94F9
S1130B605B040E94BA0380930D028F3FD1F38FE799
S1130B709AE1A6E081509040A040E1F700C0000057
S1130B8080910D02823309F071C0C9EBD0E00F2EC1
S1130B90F1ECCF2EF0E0DF2EF02D0F2EF5ECAF2E82
S1130BA0F0E0BF2EF02D08EC10E00F2EF9EDEF2E43
S1130BB0F0E0FF2EF02D0E948904CE010E945B0418
S1130BC08FE79AE1A6E081509040A040E1F700C091
S1130BD0000083E10E94AD0B8FE79AE1A6E081500B
S1130BE09040A040E1F700C000008FEF0E94AD0BE1
S1130BF080931102882321F4C6010E945B0403C080
S1130C00C5010E945B0482E061E00E946A04C8019D
S1130C100E945B040E94BA0380930D028F3FD1F3BC
S1130C20813331F481E10E94AD0B0E94890484C0B8
S1130C30823331F482E10E94AD0B0E9489047CC0AE
S1130C40833329F40E9489040E94990575C00E9487
S1130C508904C7010E945B048FEF99E6A8E18150E3
S1130C609040A040E1F700C00000A5CF813309F017
S1130C704DC00E94890485EE90E00E945B040E94AE
S1130C80BA0380930D028F3FD1F30E9419048FEFB2
S1130C9099E6A8E181509040A040E1F700C000002F
S1130CA080910D02880F982F990F990F890F805EFC
S1130CB0809310020E94BA0380930D028F3FD1F3F8
S1130CC00E9419048FEF99E6A8E181509040A0405A
S1130CD0E1F700C0000090910D0280911002890F8D
S1130CE08053809310020E94890484E10E94AD0B1A
S1130CF08FE79AE1A6E081509040A040E1F700C060
S1130D000000809110020E94AD0B16C0833319F4C9
S1130D100E94A70611C00E94890489ED90E00E94F8
S1130D205B048FEF99E6A8E181509040A040E1F781
S1130D3000C000000E949905DF91CF911F910F918F
S1130D40FF90EF90DF90CF90BF90AF9008950E94F6
S1130D5089048BEE90E00E945B0482E061E00E94D3
S1130D606A0489EF90E00E945B040E94BA038093B6
S1130D700D028F3FD1F38FE79AE1A6E081509040B6
S1130D80A040E1F700C0000080910D02813329F4F6
S1130D9084E061E00E9437070895823319F40E94C9
S1130DA042080895833319F40E9499050895843004
S1130DB019F40E94EC0608950E94890485E091E0EC
S1130DC00E945B048FEF99E6A8E181509040A04017
S1130DD0E1F700C0000008950E9489048EE091E0CC
S1130DE00E945B0482E061E00E946A048FE191E06A
S1130DF00E945B040E94BA0380930D028F3FD1F3DB
S1130E008FE79AE1A6E081509040A040E1F700C04E
S1130E10000080910D02813329F481E061E00E9499
S1130E2037070895823329F482E061E00E9437078E
S1130E300895833329F483E061E00E94370708951D
S1130E40843319F40E94A70608950E94890489ED49
S1130E5090E00E945B048FEF99E6A8E181509040F6
S1130E60A040E1F700C000000E94EC060895CF9373
S1130E70DF93C82FD62F0E9489048FE291E00E944D
S1130E805B048C2F805D0E94190483E391E00E942F
S1130E905B048FE79AE1A6E081509040A040E1F71F
S1130EA000C00000C23041F0C33051F0C13061F4E1
S1130EB083E00E94AD0B0BC086E00E94AD0B07C01F
S1130EC089E00E94AD0B03C08CE00E94AD0B8FE75C
S1130ED09AE1A6E081509040A040E1F700C00000F4
S1130EE08FEF0E94AD0B80931102882329F481ECCB
S1130EF090E00E945B0404C085EC90E00E945B04D7
S1130F0082E061E00E946A0488EC90E00E945B0445
S1130F100E94BA0380930D028F3FD1F38133C1F451
S1130F20C23041F0C33051F0C13061F481E00E941D
S1130F30AD0B0BC084E00E94AD0B07C087E00E949C
S1130F40AD0B03C08AE00E94AD0B0E94890441C02E
S1130F508233C1F4C23041F0C33051F0C13061F486
S1130F6082E00E94AD0B0BC085E00E94AD0B07C070
S1130F7088E00E94AD0B03C08BE00E94AD0B0E9481
S1130F80890427C0833391F40E948904D13019F075
S1130F90D230F9F408C0C43019F00E94EC0619C02C
S1130FA00E94A70616C00E94EC0713C00E94890481
S1130FB089ED90E00E945B048FEF99E6A8E18150EF
S1130FC09040A040E1F700C000008C2F6D2F0E94DC
S1130FD03707DF91CF9108958FEF99E6A8E181500B
S1130FE09040A040E1F700C000000E9489048EE018
S1130FF091E00E945B0482E061E00E946A0489E35C
S113100091E00E945B040E94BA0380930D028F3F1B
S1131010D1F38FE79AE1A6E081509040A040E1F738
S113102000C0000080910D02813329F481E062E068
S11310300E9437070895823329F482E062E00E9417
S113104037070895833329F483E062E00E94370769
S11310500895843329F484E062E00E9437070895F8
S11310600E94890489ED90E00E945B048FEF99E669
S1131070A8E181509040A040E1F700C000000E9428
S1131080EC0708950E9489048AE491E00E945B04BD
S11310908FE79AE1A6E081509040A040E1F700C0BC
S11310A0000080E10E94AD0B8FE79AE1A6E0815039
S11310B09040A040E1F700C000008FEF0E94AD0B0C
S11310C080931102882329F481EC90E00E945B0450
S11310D004C085EC90E00E945B0482E061E00E9421
S11310E06A0488EC90E00E945B040E94BA03809337
S11310F00D028F3FD1F3813331F48DE00E94AD0BAB
S11311000E9489040895823331F48FE00E94AD0B6C
S11311100E9489040895833329F40E9489040E945B
S1131120A70608950E94890489ED90E00E945B045B
S11311308FEF99E6A8E181509040A040E1F700C00C
S113114000000E944208089580E390E00E94780322
S113115080930A0280E290E00E94780380930C025C
S113116085E290E00E94780380930B020E949D0424
S11311700E947D0383E660E00E94CE0483E661E082
S11311800E94CE0483E662E00E94CE040E947A0BA1
S113119082E591E00E945B0482E061E00E946A04BF
S11311A08AE591E00E945B048FEF99E6A8E1815003
S11311B09040A040E1F700C000000E9489040F2E77
S11311C0F5E6CF2EF1E0DF2EF02D0F2EF5E7AF2E52
S11311D0F1E0BF2EF02D0EE711E00F2EFDE8EF2E0B
S11311E0F1E0FF2EF02D0F2EFDEF8F2EF1E09F2E5C
S11311F0F02D0F2EF2E16F2EF2E07F2EF02D0F2E48
S1131200F7EE4F2EF1E05F2EF02D0F2EF1EF2F2E83
S1131210F1E03F2EF02D80910A028F3F09F462C065
S113122083E662E00E94DF04C6010E945B0481E35E
S113123090E00E94780380930F0282E061E00E94B4
S11312406A0480910F0290E0C097CAE0D0E0BE012A
S11312500E94D70B862F0E94190480910F0290E000
S1131260C097BE010E94D70B0E941904C5010E94B9
S11312705B0480910F028332C0F460910F0281E31A
S113128090E00E946E038FEF99E6A8E181509040B0
S1131290A040E1F700C0000080910F028F5F8093AF
S11312A00F0280910F02833240F383E0809309029E
S11312B080E390E06FEF0E946E0380E390E00E9471
S11312C0780380930A028FEF99E6A8E18150904059
S11312D0A040E1F700C000000E94890483E662E0B8
S11312E00E94F0040E948904C8010E945B0482E009
S11312F061E00E946A04C7010E945B0483E660E027
S11313000E94F00483E661E00E94F0048FEF99E606
S1131310A8E181509040A040E1F700C000000E9485
S1131320BA0380930D028F3FD1F3813309F0D9C002
S113133080910C028F3F09F0BDC18FEF99E6A8E1BF
S113134081509040A040E1F700C000000E94890451
S11313508DE991E00E945B0482E061E00E946A04EE
S11313608CEA91E00E945B0410920E020E94BA0380
S113137080930D028F3FD1F30E9419048FE79AE105
S1131380A6E081509040A040E1F700C000008091A9
S11313900E0290E060910D02605381960E946E03EC
S11313A060910E02645F82E00E946A048AE20E94F5
S11313B0190480910E028F5F80930E028430B0F284
S11313C080E290E061E00E946E038FEF99E6A8E16D
S11313D081509040A040E1F700C000000E948904C1
S11313E00E94890488EB91E00E945B0482E061E042
S11313F00E946A0482EC91E00E945B0410920E0247
S11314000E94BA0380930D028F3FD1F30E94190406
S11314108FE79AE1A6E081509040A040E1F700C038
S1131420000060910E02862F90E08E5E9D4F209109
S11314300D022053DC012C93645F82E00E946A0455
S11314408AE20E94190480910E028F5F80930E023B
S11314508430B0F28FEF99E6A8E181509040A0402B
S1131460E1F700C000000E948904D301CC9181E21D
S113147090E00E947803C81789F5E3E1F2E0C081A7
S113148082E290E00E947803C81741F5A4E1B2E03B
S1131490CC9183E290E00E947803C817F9F4E5E167
S11314A0F2E0C08184E290E00E947803C817B1F4AE
S11314B083E660E00E94DF048EEC91E00E945B040E
S11314C08FEF99E6A8E181509040A040E1F700C079
S11314D000000E9489040E94EC069DCE0E94210512
S11314E09ACE823309F0D7C080910B028F3F09F066
S11314F0F2C08FEF99E6A8E181509040A040E1F757
S113150000C000000E9489048DE991E00E945B0400
S113151082E061E00E946A048BED91E00E945B042A
S113152010920E020E94BA0380930D028F3FD1F3F2
S11315300E9419048FE79AE1A6E081509040A040F0
S1131540E1F700C0000080910E0290E060910D026E
S1131550605386960E946E0360910E02645F82E07F
S11315600E946A048AE20E94190480910E028F5F2D
S113157080930E028430B0F285E290E061E00E9434
S11315806E038FEF99E6A8E181509040A040E1F707
S113159000C000000E9489040E948904C2010E94C4
S11315A05B0482E061E00E946A04C1010E945B0462
S11315B010920E020E94BA0380930D028F3FD1F362
S11315C00E9419048FE79AE1A6E081509040A04060
S11315D0E1F700C0000060910E02862F90E08E5E5D
S11315E09D4F20910D022053DC012C93645F82E017
S11315F00E946A048AE20E94190480910E028F5F9D
S113160080930E028430B0F28FEF99E6A8E1815006
S11316109040A040E1F700C000000E948904D3017B
S1131620CC9186E290E00E947803C81789F5E3E143
S1131630F2E0C08187E290E00E947803C81741F588
S1131640A4E1B2E0CC9188E290E00E947803C8174C
S1131650F9F4E5E1F2E0C08189E290E00E947803C8
S1131660C817B1F483E661E00E94DF048EEC91E0D8
S11316700E945B048FEF99E6A8E181509040A0405E
S1131680E1F700C000000E9489040E94EC07C3CD6A
S11316900E942105C0CD0E948904C4010E945B04FC
S11316A08FEF99E6A8E181509040A040E1F700C097
S11316B00000B1CD0E94890488EB91E00E945B0494
S11316C082E061E00E946A0482EC91E00E945B0483
S11316D010920E0295CE0E948904C2010E945B04FE
S11316E082E061E00E946A04C1010E945B041092DE
S11316F00E0260CF82E464E041E00E94490082E48B
S113170065E041E00E94490082E466E040E00E9416
S1131710490082E467E041E00E9449006C9A689ABB
S11317206E9A82E464E041E00E94DA00089582E463
S113173064E040E00E94490082E465E040E00E94E9
S1131740490082E466E041E00E94490082E467E0E7
S113175040E00E9449006E9A0895CF93C82F82E416
S113176064E040E00E94DA00CFB9779BFECF8FB1EE
S1131770CF9108958FB9779BFECF8FB10895CF9302
S1131780DF93EC018881882379F021960E94AD0BC8
S11317908FEF92E5A7E081509040A040E1F700C0B0
S11317A000008991882391F7DF91CF91089597FBE9
S11317B0092E07260AD077FD04D00CD006D00020CD
S11317C01AF4709561957F4F0895F6F79095819579
S11317D09F4F0895AA1BBB1B51E107C0AA1FBB1F43
S11317E0A617B70710F0A61BB70B881F991F5A95A9
S11317F0A9F780959095BC01CD010895F894FFCF89
S11318003738392F3435362A3132332D41303D2B98
S113181077726F6E67207061737300747269657399
S11318203A00796F752061726520626C6F636B6535
S11318306400207365636F6E647300312D54454DED
S11318405020434F4E54524F4C00322D4F4E2F4F89
S1131850464620332D524554004143205365743A83
S1131860004F4646004F4E00312D4F4E20322D4F33
S1131870464620332D5245540077726F6E672069B7
S11318806E7075740054454D503A00312D524F4FCF
S11318904D342020322D545600332D414320203422
S11318A02D5245540054696D65206F757400312DB7
S11318B0524F4F4D312020322D524F4F4D32003375
S11318C02D524F4F4D332020342D4D4F5245005251
S11318D06F3A00207365743A00332D524F4F4D33E5
S11318E02020342D524F4F4D3400545620536574EC
S11318F03A0057656C636F6D6500534D4152542037
S1131900484F4D4500796F752061726520626C6F98
S1131910636B656400207365636F6E647300736545
S11319206C656374207468652061636300312D41C4
S1131930646D696E20322D67756573740050415370
S11319402046495253542054494D450041444D4981
S11319504E20504153533A0041646D696E206163D7
S1131960630041646D696E20506173733A00636F64
S113197072726563742070617373004755455354E4
S113198020504153533A0047756573742061636373
S113199000477565737420506173733A0077726FF2
S11119A06E6720696E7075740003FFFFFFFF11
S9030000FC
